:105FDE0053B1FB43B20412525D1257E5123FE61263
:105FEE0047F91249DB12571612596A125464123DC0
:035FFE00A480E696
:10149100514474656368B0E6C8A8CBF9D3D000C8DD
:1014A100ABB6AFB5E7D7D3D7DBBACFB2E2CAD4B3C5
:1014B100CCD0F200C8ABB6AFB5E7D7D300D7DBBA13
:1014C100CFB2E2CAD4B3CCD0F200332E32272049B6
:1014D1004C4939343831203332305834383000787F
:1014E10069616F46656E6740514474656368203277
:1014F1003031342D30322D323500B2E2CAD4313A96
:10150100B4BFC9ABCCEEB3E4B2E2CAD40057686948
:10151100746500426C61636B0052656400477265DB
:10152100656E00426C756500B2E2CAD4323A475525
:1015310049BED8D0CECCEEB3E4B2E2CAD400B2E216
:10154100CAD4333A475549BBADD4B2CCEEB3E4B2B9
:10155100E2CAD400B2E2CAD4343AD3A2CEC4CFD4C0
:10156100CABEB2E2CAD400365831323A616263640B
:1015710065666768696A6B6C6D6E6F7071727374A2
:1015810075767778797A00365831323A4142434458
:1015910045464748494A4B4C4D4E4F503031323306
:1015A10034353637383900365831323A7E214023C6
:1015B10024255E262A28295F2B7B7D3A3C3E3F2F3E
:1015C1007C2D2B2E00385831363A61626364656692
:1015D1006768696A6B6C6D6E6F7071727374757622
:1015E1007700385831363A414243444546474849E5
:1015F1004A4B4C4D4E303132333435363700385842
:1016010031363A7E21402324255E262A28295F2B64
:101611007B7D3A3C3E3F2F7C00B2E2CAD4353AD6BC
:10162100D0CEC4CFD4CABEB2E2CAD400313658310A
:10163100363AC8ABB6AFB5E7D7D3BCBCCAF5D3D041
:10164100CFDEB9ABCBBEBBB6D3ADC4FA0031365891
:1016510031363A57656C636F6D65C8ABB6AFB5E7A8
:10166100D7D30032345832343AC9EEDBDACAD0D695
:10167100D0CEC4B2E2CAD40033325833323AD7D6CC
:10168100CCE5B2E2CAD400B2E2CAD4363ACDBCC685
:10169100ACCFD4CABEB2E2CAD400515100B2E2CA40
:1016A100D4373A546F756368B2E2CAD400525354C6
:1016B10000FFFFFFFFFFFFFFFFFFFFFFFFFFFFFF38
:1016C100FFFFFFFFFFFFFFFFFFFFFFFFFFFFFFBE6A
:1016D100F7FFFFDEFF38C6928C8E6B6E6B107C9627
:1016E100AD3CE7FFFFFFFFFFFFFFFFFFFFFFFFFF36
:1016F100FFFFFFFFFFFFFFFFFFFFFFFFFFFFFFFFF9
:10170100FFFFFFFFFFFFFFFFFFFFFFFFFFFFFFFFE8
:10171100FFFFFFFFFFFFFFFFFFFFFFFFFFFFFF5D7A
:10172100EF159D4F636C420A3288294619251945E8
:1017310021E8318E6B38C6FFFFFFFFFFFFFFFFFF80
:10174100FFFFFFFFFFFFFFFFFFFFFFFFFFFFFFFFA8
:10175100FFFFFFFFFFFFFFFFFFFFFFFFFFFFFFFF98
:10176100FFFFFFFFFFFFFFFFFFFFFFFFFF36A5109A
:1017710053104B51530F4B6C3AE93167212519E452
:1017810010A30862008308CB529AD6FFFFFFFFFF28
:10179100FFFFFFFFFFFFFFFFFFFFFFFFFFFFFFFF58
:1017A100FFFFFFFFFFFFFFFFFFFFFFFFFFFFFFFF48
:1017B100FFFFFFFFFFFFFFFFFF3CE77063B363B86D
:1017C1007CF56311434D32EA298821261905190553
:1017D1001904110411E4108300A308728CFFFFFFA8
:1017E100FFFFFFFFFFFFFFFFFFFFFFFFFFFFFFFF08
:1017F100FFFFFFFFFFFFFFFFFFFFFFFFFFFFFFFFF8
:10180100FFFFFFFFFFFFFFDBDE4B3AF042356C5479
:101811004BB1322E2AEB21A92167190519041104B4
:10182100110411041104110519E4104200AF73FFF2
:10183100FFFFFFFFFFFFFFFFFFFFFFFFFFFFFFFFB7
:10184100FFFFFFFFFFFFFFFFFFFFFFFFFFFFFFFFA7
:10185100FFFFFFFFFF5DEF09324C32104B8F324F1C
:101861002A2E2ACC1989198921471905190411042D
:1018710011C410C410041104110411E41042003108
:1018810084FFFFFFFFFFFFFFFFFFFFFFFFFFFFFFE2
:10189100FFFFFFFFFFFFFFFFFFFFFFFFFFFFFFFF57
:1018A100FFFFFFFFFFEC5247194C320B2AEC21ECF2
:1018B100210C22915BEE4A061126190419E410E469
:1018C10010A7296621A308051904110411E4108247
:1018D10000F7BDFFFFFFFFFFFFFFFFFFFFFFFFFF60
:1018E100FFFFFFFFFFFFFFFFFFFFFFFFFFFFFFFF07
:1018F100FFFFFF35A58308882188218921AA218A34
:10190100216B42718CFFFF728C83080411C408297A
:1019110042FBDE5DEFEC5A830804110411041183CC
:1019210008E831DFFFFFFFFFFFFFFFFFFFFFFFFFC2
:10193100FFFFFFFFFFFFFFFFFFFFFFFFFFFFFFFFB6
:10194100FFBEF7C731C4102519261947194719A831
:10195100298A52284A55ADFFFFE831A30805194DE0
:101961006B4D6BFFFF7DEF4521C410041104110481
:1019710011620076ADFFFFFFFFFFFFFFFFFFFFFFDB
:10198100FFFFFFFFFFFFFFFFFFFFFFFFFFFFFFFF66
:10199100FF96B562000411041905110519C4088BDD
:1019A1004AB6B55DEFF7BDFFFF8E6B62002942AA13
:1019B1005A0842FFFFFFFFCC5283080411041104AF
:1019C10011A308AD52FFFFFFFFFFFFFFFFFFFFFF66
:1019D100FFFFFFFFFFFFFF1CE7FFFFFFFFFFFFFF11
:1019E100FF4E636200041104110411E41062008EC1
:1019F10063FFFFFFFFFFFFFFFFCF730100F39C2C8D
:101A01006396B5FFFFFFFF2D5B83000411041104F2
:101A110011E41067213DEFFFFFFFFFFFFFFFFFFF15
:101A2100FFF8BDB7B59EEFCB52B394FFFFFFFFDFC9
:101A3100FFE831A3080411041104110411A308499A
:101A410042FFF7FFF7FFFFFFFF6A4A01007284FFC1
:101A5100FFFFFFFFF7DFEF093AA3080411041104A8
:101A6100110411051118BEFFFFFFFFFFFFFFFFFF6C
:101A7100FFF07B6200E831C731410035A5FFFF5D12
:101A8100EF4621C4100411041104110411E410A340
:101A910008769DFFF7FFFFB7ADA308A308C7319EE6
:101AA100E7FFF7FFF776A5A308E41004110411047A
:101AB100110511051135A5FFFFFFFFFFFFFFFFFF17
:101AC100FFDBDEA7298300C410C410C4101CE79EED
:101AD100EF0511E41004110411041104110419C4D7
:101AE10008E510D16BD16BC5086400A50843002B34
:101AF10032779DB3842519C4100411041104110413
:101B01001125192609359DFFFFFFFFFFFFFFFFFF8D
:101B1100FFFFFFAF7362000419051982000D5B8E90
:101B21009B62100511041104110419E410850005CC
:101B310011C439815A407B229C43AC03A4839B820C
:101B4100728249C218A400C500E4100419041105E9
:101B51001947196711EC5ABEFFFFFFFFFFFFFFFF97
:101B6100FFDFFFDBDEC410E41004110511A418012E
:101B7100C08388E40005190419C50844214383235F
:101B8100D542FEE4FE27FF07FFA4FE64FE03FEA389
:101B9100FDE2FC42EC83B32462E510C4080419267B
:101BA10019A81987210090D3BCFFFFFFFFFFFFFF9A
:101BB100FFDFFFFFFF107C4200051905118328019B
:101BC100D044F8A348E400C508445A02EDE2FD02FE
:101BD100FE66FE74FFB8FF73FFE7F6A6F645F6A4AE
:101BE100F5C3FC62FCC2FCC2FCE3CBC4490611880C
:101BF100198701A49001F8EC9AFFFFFFFFFFFFFF97
:101C0100FFFFFFFFFFBEF7E83183000509824001B6
:101C1100C023F885F0A348A400445A02FD23CCC296
:101C2100DC04FE28FE48F646F624F6E4F564FDE3FE
:101C3100FC62FCC2FC02E402DCE2FCA47A4801671B
:101C410001C47824F802F884B07DE7FFFFFFFFFFAD
:101C5100FFFFFFFFFFFFFFDBDE2519A300C43802F2
:101C6100E022D844F8A6F8A4786300432183728364
:101C710039829B21F561FD22FDE2FCA2FC42FC427E
:101C8100FC42FC22AB8341C392045226012519A4D4
:101C91009844F823F802F8A4D09EEFFFFFFFFFFF5E
:101CA100FFFFFFFFFFFFFFFFFF9AD68729A5004334
:101CB100B822F823E065F8E8F807C983484200A391
:101CC1000084006329A27A62B3A2CB62D302BB82F1
:101CD1008A8339A400E500E500E508C46064D844BE
:101CE100F824F823F802F88388DBC6FFFFFFFFFF23
:101CF100FFFFFFFFFFFFFFFFFFFFFF3DE7505B0817
:101D01003123E843F844F065F809F9ABF989D106C4
:101D110089A3484218020042006100820062006209
:101D2100008300A320C450A58885D865F844F844F1
:101D3100F823F823F803D08210C7295DEFFFFFFFD6
:101D4100FFFFFFFFFFFFFFFFFFFFFFFFFFFFFF6C35
:101D510032A53802D823F865F866F8A7F84AF90CD5
:101D6100FA4DFA4CEA0BD2A9B968B147A927B107D4
:101D7100B907D1E7E8C7F8A7F865F865F844F8238B
:101D8100F803F802D0A3280509C408EC5AFFFFFFA5
:101D9100FFFFFFFFFFFFFFFFFFFFFFFFFFFBDE0571
:101DA10019C400A741E6C003F886F8A7F887F886AA
:101DB100F8C7F829F98AF9ABF9ABF98BF96AF9296E
:101DC100F908F9C7F8A6F886F865F864F823F80267
:101DD100F006B12529E400E41025192519149DFF09
:101DE100FFFFFFFFFFFFFFFFFFFFFFFFFF96AD625A
:101DF1000082083595BACE8BA244D025F887F8A782
:101E0100F8C7F8A7F887F886F886F886F887F8A75C
:101E1100F8A7F8A6F885F865F864F824F064B80D19
:101E210093BBB6CF6383080411E4106621493A5D80
:101E3100EFFFFFFFFFFFFFFFFFFFFFFFFFD3944215
:101E410000E410BBCEFFFFBEE776B5CCAA07C145C3
:101E5100E045F846F866F886F886F886F886F8656B
:101E6100F845F865F865E844D043A8018882903CBC
:101E7100D7FFEF559583080411041105194619B3CD
:101E810094FFFFFFFFFFFFFFFFFFFFFFFFB3944141
:101E91000086215DDFFFFFFFFFFFFFDFE77AC6D38B
:101EA100B44EB32AC268D1E6E0A6E8A5E8A5E8E603
:101EB100D888C906A922A802A800A000C800D8F79E
:101EC100E5FFE7F8ADC410E4100411E41005118B2F
:101ED1004AFFFFFFFFFFFFFFFFFFFFFFFF55A54188
:101EE10000A7295DDFFFF7FFFFFFFFFFFFFFFFFFF8
:101EF100FFFFEF7DDFDBCE59CEF8CDD7CDF7C5792A
:101F0100CEFBBEABA203F045F842D043E800F0722D
:101F1100D4FFDF39AEE410E4100411E41005118799
:101F210029FFFFFFFFFFFFFFFFFFFFFFFF59CE83E9
:101F31000846211CD7FFF7FFFFFFFFFFFFFFFFFF51
:101F4100FFFFFFFFFFFFFFFFFFFFFFFFFFFFFFFFA0
:101F5100FFFFEF8BBA04F845F862E044F000F88E19
:101F6100DBFFDFF8A5C410E410E4100411E4102530
:101F710019FFFFFFFFFFFFFFFFFFFFFFFFBEF78717
:101F810029830839B6FFF7DFF7FFFFFFFFFFFFFFE8
:101F9100FFFFFFFFFFFFFFFFFFFFFFFFFFFFFFFF50
:101FA100FFBEE74ABA03F845F864F844F800F86E52
:101FB100E3FFD7F48C83080411E410E410E4100566
:101FC10019FFFFFFFFFFFFFFFFFFFFFFFFFFFFEF16
:101FD1007300007284FFEFBEEFDFFFFFFFFFFFFF23
:101FE100FFFFFFFFFFFFFFFFFFFFFFFFFFFFFFFF00
:101FF100FFDFE78BBA03F845F845F823F800F8D37B
:10200100D4FFD74E5B2100293A55A58308C410257A
:1020110019FFFFFFFFFFFFFFFFFFFFFFFFFFFFFBB9
:10202100DEA308E8319EDF9EE7BFEFFFFFFFFFFF62
:10203100FFFFFFFFFFFFFFFFFFFFFFFFFFFFFFFFAF
:10204100FFFFF751BC02E003F803F043E0ECC27E6E
:10205100CFFCBE46212100D394FFFF5184000087AD
:1020610029FFFFFFFFFFFFFFFFFFFFFFFFFFFFFF55
:10207100FF51840000F48CFFEF9EE7BFEFDFFFFF0D
:10208100FFFFFFFFFFFFFFFFFFFFFFFFFFFFFFFF5F
:10209100FFFFFF3DDF55BD52BC72BCB7B55DC7FF49
:1020A100DFF06B0000093ABFF7FFFFFFFF149D55FA
:1020B100A5FFFFFFFFFFFFFFFFFFFFFFFFFFFFFF89
:1020C100FFFFFFAC4AA408BBBEDFE77EE7BEEFDF40
:1020D100F7DFFFFFFFFFFFFFFFFFFFFFFFFFFFFF37
:1020E100FFDFFFDFF7FFEFDFDFBFD79ED7DFDFD8EF
:1020F100A583082611DBD6FFFFFFFFFFFFFFFFFFD0
:10210100FFFFFFFFFFFFFFFFFFFFFFFFFFFFFFFFDE
:10211100FF79EE8BDC2131A9213DCFBFDF7EDF9E30
:10212100E7BEEFBFEFDFF7DFF7DFF7DFF7DFF7BF7F
:10213100EFBEEF9EE77EDF5ED75ED7DFDF9AB62682
:10214100194208EDA3BFFFFFFFFFFFFFFFFFFFFFE6
:10215100FFFFFFFFFFFFFFFFFFFFFFFFFFFFFF7419
:10216100DDC0DB00FE42EE024289217BB6DFDF7E6D
:10217100D77EDF7EDF9EE79EE79EE79EE79EE77EB6
:10218100DF7EDF5DD75DD79EDFFFE7F8A50711E3AF
:102191001802C560FDE6D3DBEEFFFFFFFFFFFFFF87
:1021A100FFFFFFFFFFFFFFFFFFFFFFFFFF9EF78422
:1021B100BAC1FC42FE82FEA2FE8183452174745E97
:1021C100C7DFDF7ED75ED75DD75ED75ED75DD75DD0
:1021D100D75ED79EDFFFE73DC7F1638408425226F1
:1021E100E629FF86FEE0F36AC3FFFFFFFFFFFFFF63
:1021F100FFFFFFFFFFFFFFFFFFFFFFFFFF18DEC134
:10220100D2A2FD22FE42FE42FE62FEE2D4416A49B2
:102211004253743BA63EC7BFD7BFD7BFD7BFDFBFAF
:10222100D73EC71AA6F263A729824122B462FE8370
:10223100FEAAFE0FFF67FD63BA3CEFFFFFFFFFFF42
:10224100FFFFFFFFFFFFFFFFFFFFFFFFFF9AE6809A
:10225100D221FDC2FDE2F5C2F582F582FD62FD618A
:10226100DC219B846AE96A2C63AF6311746E632C71
:1022710063895A0452817AC2CBE2FC62FD82FDC2BB
:10228100FDC2FDE4FD24FD62CA1CE7FFFFFFFFFF65
:10229100FFFFFFFFFFFFFFFFFFFFFFFFFFFFFFB19B
:1022A100CC81D2C0F3C1FC02FD02FDE2FCC2FCC242
:1022B100FC81FC80FBC0C9A48135AD59CE719C2144
:1022C1008100DAA1FB82FCA2FC82FCA2FC02FD22BD
:1022D100FDE2FC00FC60DA90CCFFFFFFFFFFFFFF97
:1022E100FFFFFFFFFFFFFFFFFFFFFFFFFFFFFFFFFD
:1022F100FF59DE0DC406CBE4D203DB03DBE3DAC313
:10230100D2A4C209B3D2BC9EF7FFFFFFFFFFFFFBC0
:10231100E60EB4A6BA83D2E3E202EB22EB22E30398
:10232100DBE4D26AC3B6D5FFFFFFFFFFFFFFFFFF6C
:01233100FFAC
:0D5F15004A00ACF81FFFE0F80007E0001F95
:06536D007BFF7A16799E19
:10537300900005EBF0A3EAF0A3E9F0900082E0FAD5
:10538300A3E0FB90000FE4F0A37414F0A3E4F0A3F4
:10539300741FF0E4FDFCFFFE12555A900084E0FEFA
:1053A300A3E0FF24ECFDEE34FFFC900082E0FAA3BF
:1053B300E0FB90000FEEF0A3EFF0A3E4F0A3741F63
:1053C300F0E4FFFE12555A74FF90007EF0A3F090B4
:1053D300000EE4F0A3741FF0900005E0F9A3E0FAD7
:1053E300A3E0900010C9F0A3EAF0A3E9F0A37410BE
:1053F300F0A37401F074FFFBFA7D027C00E4FFFE6E
:10540300125B7D900085E024EEFD900084E034FF84
:10541300FC90000EE4F0A3741FF0A374FFF0A374D8
:1054230014F0A37491F0A37410F0A37401F074FF4B
:10543300FBFAE4FFFE125B7D900082E0FAA3E0FB3F
:10544300900085E024ECFE900084E034FF90000F90
:10545300F0A3CEF0E4A3F0A3F07D14FCFFFE02550D
:015463005AEE
:1057E5007BFF7A1479A012537390000EE4F0A37432
:1057F5001FF0A374FFF0A37414F0A374B5F0A374A1
:1058050010F0A37401F07B007AF87D1E7C00E4FFA4
:10581500FE125B7D90000EE4F0A3741FF0A374FFED
:10582500F0A37414F0A374BEF0A37410F0A3740174
:10583500F07B007AF87D3C7C00E4FFFE125B7D90F6
:10584500000EE4F0A3741FF0A374FFF0A37414F02A
:10585500A374CBF0A37410F0A37401F07BE07AFF7E
:105865007D5A7C00E4FFFE125B7D90000EE4F0A300
:10587500741FF0A374FFF0A37414F0A374E0F0A3F5
:105885007410F0A37401F07B1F7A007D787C00E42E
:10589500FFFE125B7D7FDC7E05125F6D7FDC7E0582
:0358A500025F6D32
:103FE6007BFF7A1479FB125373900082E0FAA3E008
:103FF600FB900085E024ECFE900084E034FF900006
:104006000FF0A3CEF074FFA3F0A3F07D147C00E4C0
:10401600FFFE12555A900083E024CEFF900082E006
:1040260034FFFE90001B74FFF0A374E0F0A374FF4E
:10403600F0A37415F0A3740EF0A37410F0A374012A
:10404600F07B1F7A007D1E7C0012343A7FF47E01DD
:10405600125F6D900082E0FAA3E0FB900085E024F9
:10406600ECFE900084E034FF90000FF0A3CEF0E465
:10407600A3F0A3F07D14FCFFFE12555A900083E0D6
:1040860024CEFF900082E034FFFE90001B74FFF008
:10409600A374E0F0A374FFF0A37415F0A37414F0F6
:1040A600A37410F0A37401F07B1F7A007D1E7C00C0
:1040B60012343A7FF47E01125F6D900082E0FAA31B
:1040C600E0FB900085E024ECFE900084E034FF9055
:1040D600000FF0A3CEF0A374F8F0A3E4F07D14FC77
:1040E600FFFE12555A900083E024CEFF900082E036
:1040F60034FFFE90001B74FFF0A374E0F0A374FF7E
:10410600F0A37415F0A3741AF0A37410F0A374014D
:10411600F07B1F7A007D1E7C0012343A7FF47E010C
:10412600125F6D900082E0FAA3E0FB900085E02428
:10413600ECFE900084E034FF90000FF0A3CEF0A3D5
:104146007407F0A374E0F07D147C00E4FFFE1255C2
:104156005A900083E024CEFF900082E034FFFE9068
:10416600001B74FFF0A374E0F0A374FFF0A37415B2
:10417600F0A3741EF0A37410F0A37401F07B1F7AF1
:10418600007D1E7C0012343A7FF47E01125F6D9032
:104196000082E0FAA3E0FB900085E024ECFE9000AC
:1041A60084E034FF90000FF0A3CEF0A3E4F0A374F4
:1041B6001FF07D147C00E4FFFE12555A900083E048
:1041C60024CEFF900082E034FFFE90001B74FFF0C7
:1041D600A374E0F0A374FFF0A37415F0A37424F0A5
:1041E600A37410F0A37401F074FFFBFA7D1E7C002B
:0A41F60012343A7FF47E01025F6D7F
:1047F900E4900000F07BFF7A157929125373900039
:1048090082E0FAA3E0FB900085E024ECFE900084AE
:10481900E034FF90000FF0A3CEF074FFA3F0A3F0F3
:104829007D147C00E4FFFE12555AE4900000F090DC
:104839000082E0C313FEA3E01324B0FDEE34FFFCB5
:10484900900000E0F975F00FA4FBAAF02DFFEA3CF7
:10485900FEC006C007900084E0C313FEA3E0132442
:10486900B0FFEE34FFCF2BFDEF3AFCC004C005903A
:104879000082E0C313FCA3E013FDE975F00FA42D3A
:10488900FFE5F03CCF24ECFBEF34FFFAA3E0C313C0
:10489900FCA3E013FDE975F00FA42DFFE5F03CCF73
:1048A90024ECCF34FF900007F0A3EFF0D005D0043B
:1048B900D007D006125A2A900000E025E024ACF572
:1048C90082E43400F583E0FFA3E090007ECFF0A3FB
:1048D900EFF0900000E004F0E0C3940550030248B3
:1048E900387FDC7E05125F6D900082E0FAA3E0FB61
:1048F900900085E024ECFE900084E034FF90000FE6
:10490900F0A3CEF074FFA3F0A3F07D147C00E4FFC4
:10491900FE12555AE4900000F0900082E0C313FEA5
:10492900A3E01324B0FDEE34FFFC900000E0F9751C
:10493900F00FA4FBAAF02DFFEA3CFEC006C00790C9
:104949000084E0C313FEA3E01324B0FFEE34FFCFCD
:104959002BFDEF3AFCC004C005900082E0C313FCB4
:10496900A3E013FDE975F00FA42DFFE5F03CCF247A
:10497900ECFBEF34FFFAA3E0C313FCA3E013FDE95A
:1049890075F00FA42DFFE5F03CCF24ECCF34FF9058
:104999000007F0A3EFF0D005D004D007D006125FCE
:1049A900B9900000E025E024ACF582E43400F583F9
:1049B900E0FFA3E090007ECFF0A3EFF0900000E0CD
:1049C90004F0E0C3940550030249227FDC7E05020E
:0249D9005F6D10
:1049DB00E4900000F07BFF7A15793F12537390003F
:1049EB0082E0FAA3E0FB900085E024ECFE900084CB
:1049FB00E034FF90000FF0A3CEF074FFA3F0A3F010
:104A0B007D147C00E4FFFE12555AE4900000F090F8
:104A1B000082E0C313FEA3E01324B0FDEE34FFFCD1
:104A2B00900000E0F975F019A4FBAAF02DFFEA3C09
:104A3B00FEC006C007900084E0C313FEA3E013245E
:104A4B00CEFFEE34FFCF2BFDEF3AFCE925E024AC93
:104A5B00F582E43400F583E0FAA3E0FB900007E471
:104A6B00F0A3741EF0E4A3F0A3F0D007D006124419
:104A7B0018900000E004F0E0C3940540927FDC7EC8
:104A8B0005125F6D900082E0FAA3E0FB900085E0D9
:104A9B0024ECFE900084E034FF90000FF0A3CEF0E6
:104AAB0074FFA3F0A3F07D147C00E4FFFE12555AB3
:104ABB00E4900000F0900082E0C313FEA3E0132407
:104ACB00B0FDEE34FFFC900000E0F975F019A4FB8B
:104ADB00AAF02DFFEA3CFEC006C007900084E0C39D
:104AEB0013FEA3E01324CEFFEE34FFCF2BFDEF3AE2
:104AFB00FCE925E024ACF582E43400F583E0FAA36D
:104B0B00E0FB900007E4F0A3741EF0A3E4F0A30411
:104B1B00F0D007D006124418900000E004F0E0C378
:0B4B2B00940540917FDC7E05025F6D69
:105716007BFF7A15795512537390007E74F8F0A3C7
:10572600E4F0900080F0A3741FF090000A74FFF07C
:10573600A37415F0A37468F0E4A3F07B0C7D1EFC43
:105746007F0AFE1258A890000A74FFF0A37415F0A1
:10575600A37488F0A37401F07B0C7D2D7C007F0A76
:105766007E001258A890000A74FFF0A37415F0A3E7
:1057760074A8F0E4A3F07B0C7D3CFC7F0AFE125873
:10578600A890000A74FFF0A37415F0A374C6F0E4A1
:10579600A3F07B107D50FC7F0AFE1258A890000AE9
:1057A60074FFF0A37415F0A374E3F0A37401F07B07
:1057B600107D647C007F0A7E001258A890000A744F
:1057C600FFF0A37415F0A374FFF0E4A3F07B107D43
:0F57D60078FC7F0AFE1258A87FB07E04025F6D38
:10596A007BFF7A16791A12537390001B74FFF0A307
:10597A0074E0F0A374FFF0A37416F0A3742DF0A3DF
:10598A007410F0E4A3F07B1FFA7D1EFC7F0AFE125E
:10599A00343A90001B74FFF0A374E0F0A374FFF094
:1059AA00A37416F0A3744EF0A37410F0A37401F05C
:1059BA007B1F7A007D327C007F0A7E0012343A9087
:1059CA00001B74FFF0A374E0F0A374FFF0A3741635
:1059DA00F0A37464F0A37418F0A37401F07B1F7A27
:1059EA00007D467C007F0A7E0012343A90001B74C8
:1059FA00FFF0A374E0F0A374FFF0A37416F0A3748D
:105A0A0079F0A37420F0A37401F07B1F7A007D64FF
:105A1A007C007F0A7E0012343A7FB07E04025F6DFA
:105464007BFF7A167988125373900082E0FAA3E0E6
:10547400FB900085E024ECFE900084E034FF900073
:105484000FF0A3CEF074FFA3F0A3F07D147C00E42E
:10549400FFFE12555A7BFF7A1679B27D1E7C007F7F
:1054A4001E7E0012564390001B74FFF0A374E0F0BC
:1054B400A374FFF0A37416F0A3749BF0A37410F00C
:1054C400A37401F07B1F7A007D4B7C007F2A7E0051
:1054D40012343A7BFF7A1679B27D1E7C007F5A7EA5
:1054E4000012564390001B74FFF0A374E0F0A37401
:1054F400FFF0A37416F0A3749BF0A37410F0A374CC
:1055040001F07B1F7A007D4B7C007F667E001234A5
:105514003A7BFF7A1679B27D1E7C007F967E00125C
:10552400564390001B74FFF0A374E0F0A374FFF0E3
:10553400A37416F0A3749BF0A37410F0A37401F089
:105544007B1F7A007D4B7C007FA27E0012343A7F61
:06555400B07E04025F6D51
:103DA400E4900000F0A3F0A3F0A3F0A3F012536D8D
:103DB400900083E024E8FF900082E034FFFE90004E
:103DC4000A74FFF0A37416F0A374AEF0A37401F0A8
:103DD4007B10E4FDFC1258A8900082E0FCA3E0FDF7
:103DE40024CCFFEC34FFFEED24E2FBEC34FFFA902C
:103DF400000FE4F0A37412F0A374F8F0A3E4F07DD0
:103E040002FC12555A90007E74F8F0A3E4F0124DAF
:103E1400CAEF7003023FDC900082E0FEA3E0FF9053
:103E24000093E0FCA3E0FDC39FEC9E50E19000846E
:103E3400E0FEA3E0FF900095E0FAA3E0FBC39FEA55
:103E44009E50CB900083E024E8FF900082E034FF92
:103E5400FED3ED9FEC9E407BEB9410EA94005073EC
:103E640012536D900003E0FFA3E090007ECFF0A317
:103E7400EFF0900083E024E8FF900082E034FFFE3E
:103E840090000A74FFF0A37416F0A374AEF0A37448
:103E940001F07B10E4FDFC1258A8900082E0FCA322
:103EA400E0FD24CCFFEC34FFFEED24E2FBEC34FF18
:103EB400FA90000FE4F0A37412F090007EE0FDA3EA
:103EC400E0900011CDF0A3EDF07D027C0012555A74
:103ED400023E12900082E0FEA3E0FF24C4FDEE3413
:103EE400FFFC900093E0FAA3E0FBD39DEA9C50030F
:103EF400023FC0EF24E2FFEE34FFFEC3EB9FEA9ED5
:103F04004003023FC0C3900096E09414900095E0F3
:103F140094004003023FC0900082E0FCA3E0FD2433
:103F2400CCFFEC34FFFEC006C007ED24E2FBEC340A
:103F3400FFFA90000FE4F0A37412F0900001E0FE89
:103F4400A3E0FF7C007D05123215ED25E0FFEC3384
:103F5400FE74AC2FF58274003EF583E0FFA3E0907D
:103F64000011CFF0A3EFF0D007D0067D027C001241
:103F7400555A900001E475F001123280AFF0FE7CD6
:103F8400007D05123215ED25E0FFEC33FE74AC2FF5
:103F9400F58274003EF583E0FFA3E090007ECFF04D
:103FA400A3EFF090007EE0FFA3E0900003CFF0A326
:103FB400EFF07F0A7E00125F6D023E12900093E0E4
:103FC400FEA3E0FFA3E0FCA3E0FD90007EE0FAA3E3
:103FD400E0FB125D16023E127F0A7E00125F6D0244
:023FE4003E128B
:1000030000000000000000000000000000000404E5
:10001300040404040004000000140A0A00000000A1
:1000230000000000000014143F140A3F0A0A0000F5
:1000330000041E1505060C14150F0400000012150C
:100043000D0A142C2A1200000000040A0A1E1515BA
:100053000936000000020201000000000000000059
:1000630000201008080808080810200000020408EF
:10007300080808080804020000000004150E0E1505
:100083000400000000000404041F04040400000032
:100093000000000000000000000202010000000058
:1000A300001F00000000000000000000000000002E
:1000B3000002000000100808080404020202010004
:1000C30000000E1111111111110E000000000406A1
:1000D30004040404040E000000000E1111080402BD
:1000E300011F000000000E11100C1010110E000073
:1000F3000000080C0A0A091E0818000000001F016E
:10010300010F1010110E000000000E09010F111154
:10011300110E000000001F09080404040404000079
:1001230000000E11110E1111110E000000000E112E
:1001330011111E10120E0000000000000400000048
:10014300000400000000000000040000000404009C
:100153000020100804020408102000000000000022
:100163001F00001F000000000002040810201008F8
:100173000402000000000E11110804040004000032
:1001830000000E111915151D011E000000000404C6
:100193000C0A0A1E1233000000000F12120E121274
:1001A300120F000000001E1101010101110E0000D9
:1001B30000000F1212121212120F000000001F1281
:1001C3000A0E0A02121F000000001F120A0E0A0282
:1001D3000207000000001C1201013911120C00007B
:1001E30000003312121E12121233000000001F040B
:1001F30004040404041F000000003E080808080863
:1002030008090700000037120A060A0A123700001D
:100213000000070202020202223F000000001B1B33
:100223001B1B15151515000000003B1216161A1A94
:100233001217000000000E1111111111110E000010
:1002430000000F12120E02020207000000000E113E
:1002530011111117190E180000000F12120E0A12B5
:100263001237000000001E1101060810110F0000D4
:1002730000001F1504040404040E000000003312E0
:1002830012121212120C000000003312120A0A0C8E
:100293000404000000001515150E0A0A0A0A0000DE
:1002A30000001B0A0A04040A0A1B000000001B0AC0
:1002B3000A040404040E000000001F0908040402D9
:1002C300121F0000001C04040404040404041C00A2
:1002D300000202020404080808100000000E0808C7
:1002E3000808080808080E0000040A0000000000BF
:1002F3000000000000000000000000000000003FBC
:1003030000040000000000000000000000000000E6
:10031300000C121C123C000000000302020E121219
:10032300120E000000000000001C1202021C00005C
:1003330000001810101C1212123C000000000000F4
:10034300000C121E021C000000003804041E0404EA
:10035300041E000000000000003C120C021E221CC0
:1003630000000302020E1212123700000000040004
:1003730000060404040E000000000800000C080836
:100383000808080700000302023A0A0E12370000A9
:100393000000070404040404041F0000000000001C
:1003A300000F15151515000000000000000F1212B4
:1003B3001237000000000000000C1212120C0000A3
:1003C30000000000000F1212120E020700000000CE
:1003D300001C1212121C103800000000001B060241
:1003E3000207000000000000001E020C101E0000A7
:1003F30000000004040E04040418000000000000C0
:10040300001B1212123C0000000000000037120A09
:100413000C040000000000000015150E0A0A00007D
:1004230000000000001B0A040A1B0000000000007B
:100433000037120A0C04040300000000001E080425
:10044300041E00000018080808040808080818001B
:10045300080808080808080808080808000604042B
:100463000408040404040600022518000000000028
:100473000000000000000000000000000000000079
:100483000000000000000008080808080808000031
:100493001818000000486C2412000000000000003F
:1004A300000000000000002424247F1212127F1297
:1004B300121200000000081C2A2A0A0C1828282AF5
:1004C3002A1C080800000022251515152A58545423
:1004D300542200000000000C1212120A7625291182
:1004E300916E0000000606040300000000000000F7
:1004F3000000000000402010100808080808081039
:1005030010204000000204080810101010101008FA
:10051300080402000000000008086B1C1C6B08089C
:100523000000000000000000080808087F08080811
:1005330008000000000000000000000000000000B0
:10054300060604030000000000000000FE00000097
:100553000000000000000000000000000000000098
:100563000606000000008040402020101008080408
:100573000402020000000018244242424242424266
:1005830024180000000000080E08080808080808DE
:10059300083E00000000003C4242422020100804B4
:1005A300427E00000000003C4242201820404042AE
:1005B300221C0000000000203028242422227E2058
:1005C300207800000000007E0202021A264040420A
:1005D300221C0000000000382402021A2642424274
:1005E300241800000000007E2222101008080808CA
:1005F300080800000000003C424242241824424202
:10060300423C00000000001824424242645840402B
:10061300241C000000000000000018180000000067
:10062300181800000000000000000008000000008F
:100633000008080400000040201008040204081009
:10064300204000000000000000007F0000007F0049
:1006530000000000000000020408102040201008E1
:10066300040200000000003C4242464020101000FB
:10067300181800000000001C225A555555552D42EC
:10068300221C00000000000808181414243C224215
:1006930042E700000000001F2222221E22424242A3
:1006A300221F00000000007C4242010101010142BF
:1006B300221C00000000001F2242424242424242EA
:1006C300221F00000000003F4212121E12120242BB
:1006D300423F00000000003F4212121E12120202AB
:1006E300020700000000003C2222010101712122C7
:1006F300221C0000000000E7424242427E42424286
:1007030042E700000000003E08080808080808083F
:10071300083E00000000007C101010101010101094
:100723001010110F0000007722120A0E0A12122273
:100733002277000000000007020202020202020206
:10074300427F000000000077363636362A2A2A2AEE
:100753002A6B0000000000E346464A4A52525262A6
:10076300624700000000001C2241414141414141D8
:10077300221C00000000003F424242423E020202AD
:10078300020700000000001C2241414141414D533A
:10079300321C60000000003F4242423E12122222FD
:1007A30042C700000000007C42420204182040427D
:1007B300423E00000000007F4908080808080808B6
:1007C300081C0000000000E742424242424242420B
:1007D300423C0000000000E7424222242414141883
:1007E300080800000000006B494949495555362265
:1007F30022220000000000E74224241818182424B1
:1008030042E70000000000772222141408080808B9
:10081300081C00000000007E212010100804044280
:10082300423F00000078080808080808080808087C
:1008330008087800000002020404080808101020C9
:1008430020204040001E1010101010101010101027
:1008530010101E00003844000000000000000000DB
:100863000000000000000000000000000000000085
:10087300000000FF00060800000000000000000068
:1008830000000000000000000000003C42784442E9
:1008930042FC0000000000030202021A2642424208
:1008A300261A000000000000000000384402020283
:1008B3004438000000000060404040784442424217
:1008C30064D80000000000000000003C427E0202E9
:1008D300423C0000000000F08808087E0808080871
:1008E300083E0000000000000000007C22221C02E1
:1008F3003C42423C000000030202023A46424242AA
:1009030042E700000000000C0C00000E0808080875
:10091300083E000000000030300000382020202076
:100923002020221E0000000302020272120A161285
:10093300227700000000000E0808080808080808CD
:10094300083E0000000000000000007F9292929297
:1009530092B70000000000000000003B4642424204
:1009630042E70000000000000000003C4242424217
:10097300423C0000000000000000001B26424242EF
:10098300221E020700000000000000784442424299
:10099300447840E000000000000000774C040404A9
:1009A300041F0000000000000000007C42023C40E5
:1009B300423E0000000000000008083E0808080846
:1009C3000830000000000000000000634242424281
:1009D30062DC000000000000000000E74224241451
:1009E3000808000000000000000000EB49495555CD
:1009F30022220000000000000000007624181818CE
:100A0300246E000000000000000000E742242414CC
:100A130018080807000000000000007E22100808E4
:100A2300447E000000C02020202020102020202011
:100A33002020C000101010101010101010101010F3
:100A43001010101000060808080808100808080805
:100A5300080806000C32C20000000000000000007D
:100A630000000000C9EE000027FC140414A4811048
:100A730042084040104017FC2040E0E0215022484B
:100A83002C4620400040DBDA1104112411241124E8
:100A93001124FD24112411241124112411241D24B3
:100AA300E124422402040404CAD00200010000002D
:100AB3007FFC0100010001003FF821082108210803
:100AC30021082128211001000100C8AB000000000B
:100AD300018002400430180860061FF9010001007C
:100AE30001003FF80100010001007FFEB6AF0000E6
:100AF300000000203E20007C002200227F221022E2
:100B0300102212221222224223423D82009CB5E788
:100B13000000010001001FF0610C410441047FFC4F
:100B23004104410441047FFC01000102010201FC74
:100B3300D7D3000000003FF80010006000800100E0
:100B430000807FFE0040004000200020002018406D
:100B53000780BCBC00000000104013FE10407C4026
:100B6300104013FC1104190830885050106010D045
:100B730013087C06CAF500000100013001080100DA
:100B83007FFE018003400540052009101108210460
:100B9300410201000100D3D00000010002007FFEEA
:100BA300040008001FFC700490041FFC10041004D0
:100BB3001FFC10041004103CCFDE000000007BFC7F
:100BC3004A044A044BFC52044A044BFC4A404A443C
:100BD3007A2842304210420843C6B9AB00000000F5
:100BE30004400420081010101008210442020220BF
:100BF30004100810080810081FFC0004CBBE0000F6
:100C030000003FFC000400043FF400043FE4202400
:100C130020242024202420241FC40004007CBBB6ED
:100C23000000000000807EFC02A202A222A4152480
:100C330014240C300C300C481248228442840102E4
:100C4300D3AD000000002398246414440444644496
:100C5300144414441444144415C4125C1040284032
:100C630047FEC4FA00000000120013FE24222522CE
:100C7300652862242224242020E0050814842444C7
:100C8300241A47F2B4BF00000020102013FE2020D6
:100C930026244A247A241224222423FC7C200022A2
:100CA30004227822003CC9AB0000000004000FF0CE
:100CB300102020207FFC20842084208420843FF87F
:100CC3002000200220021FFECCEE00000000204086
:100CD30023FE204079FC220423FC220423FC22046B
:100CE30023FC3A0465FA01980204B3E4000001000E
:100CF30001007FFE02200410040808043FFC0442A4
:100D030004400440044208421042607EBED8000002
:100D13000000207E3E804880488048FE48827F82D3
:100D230008820C8214FA12842280218040FED0CEE5
:100D3300000000007F842208223022C02202220405
:100D43007FC8223022C222022204220822304040DD
:100D5300BBAD000000007FFE00000FF0111011106A
:100D6300111051125FF25112511251124FF24002FF
:100D73007FFCD4B2000000007FFE47E24812481215
:100D830047E24FF2501250125112511242924472E2
:100D9300580A3FFCCDBC000000003FFE440247F26E
:100DA3004C225362408243625E1A41824062430294
:100DB30040C240223FFCC6AC00000040204020401F
:100DC30020403FFE2000200020003FE020102010A4
:100DD3002010201040104010CFD4000000003FFC32
:100DE300200420043FFC200420041FF8244414485A
:100DF300144814480C5004407FFECABE0000000093
:100E03003FFC0000000000007FFE0080089008887F
:100E1300108810842084208240820780B2CB000097
:100E2300002008207FFE002000783F8811080890EA
:100E330009207FFE018003400D30310C4002B5A52F
:100E430000000010081004203FF8210421043FFC97
:100E5300210421043FF801007FFE0100010001008D
:100E6300D6D000000100010001003FFC2104210451
:100E730021042104210421043FFC0100010001009D
:100E83000100D3A20000000008207FFE08200920F3
:100E930001003FF82108210821081FF40140022026
:100EA3000C10700ECEC400000100010000803F7CD6
:100EB3000810081004100420022002400180018061
:100EC30002601C18E006D7DB00000000102011FEB2
:100ED3002202220249FC5800300013FE25287924FF
:100EE30001240D24722202A2BACF00000000018067
:100EF30002400430180860061FF800001FF82004A1
:100F030020042004200420041FF8C1C100000100B4
:100F130001007FFE00003FF820083FF83FF840063D
:100F230047C24824082008221022603EB6C80000A9
:100F3300000000803FFE44105FFC4410441043F067
:100F430040005FF84408423041C04360BC1EB2E237
:100F53000000000067C2145205520552C5522552C3
:100F63000552055215521752228222424442483EEC
:100F7300CAD4000000002014101417FE0012001041
:100F8300601013F0109010901090149214EA1F0A3E
:100F93000006B3CC0000000019FE72021202120216
:100FA3007DFC18001BFE3420502053FE102010201F
:100FB300102013FED0F20000000000803FFE40002E
:100FC30047FC4208413040C05FFE4042404240443B
:100FD300404840404440B5F70000000023FE122281
:100FE30002FA0222E22212FE1272128A128A128A72
:100FF30016BA1A421202040EB9E2000001000104FB
:1010030011080908091009207FFE04400440044028
:101013000440084208421042607CB0E60000000031
:1010230048FE4900490049007EFE4182414479441B
:10103300452845284510452846440382C8A8000092
:101043001000100013FC7D04110419041884348863
:101053005048505010201050108813041402CBF93C
:10106300000000003F7C204020403E40227E22447E
:10107300224422443E842084208440844104420448
:10108300C9EE0000000000001000000800080C7FFB
:10109300FC04401001C8A002186042301832231823
:1010A30012C30014030004030C047FF0080F80082C
:1010B3000B4078136018332018631818831C190326
:1010C30008180300000300000000DBDA0000000042
:1010D300000004100C04180C04108C04108C041071
:1010E3008C04108C04D08C3F108C04108C04108C56
:1010F30004108C04108C04108C04108C05F08C0EDE
:10110300208C78208C20408C00808C01000C020005
:101113000C000000CAD000000000000000300000F6
:10112300180000180800001C1FFFE000180000183A
:101133002007FFF0041820041820041820041820A6
:10114300041820041820041820041820041820046C
:1011530018E0041840001800001800000000D6D062
:101163000000000000000000000000000018000064
:1011730018000018000018003FFFFE301806301852
:10118300063018063018063018063FFFFE301806E2
:1011930000180000180000180000180000180000D4
:1011A3000000000000000000CEC4000000000000AA
:1011B300000000003800001C00000600FFFFFF06CF
:1011C30000300600300300600300600180C000C1EE
:1011D3008000E300003600001C0000770003C1E03C
:1011E3001E003C600007000000000000000000003B
:1011F3000000B2E200000000000000000000000058
:1012030040000321FF33398333118333019B33C1FF
:101213009B33719B33199B33019B33019B33119B8D
:101223003319B333303033306C0330C60363830375
:101233002E01BE000000000000000000CAD4000020
:10124300000000000000000000004000D83000CE85
:101253001800C21C00C001FFFF0000C0F800C01846
:1012630000C019FFC01818401818601918601B181F
:10127300611E18311C1FB139F01910000F00000056
:10128300000000000000D7D60000000000060000A8
:10129300000300000000C0000001C0C0000107C03F
:1012A3000001FF00021FFE0007F01C0007C07000D2
:1012B3000F00E0000E03F0001C0FF0003C0F700065
:1012C3003C00E0001800C0000000C0000000C000A7
:1012D3000000600000002000000037000001FF0054
:1012E300007FF80007F830001F80300000803000D6
:1012F30000C03000006060000018E000000FC00074
:101303000006000000000000CCE500000000000023
:101313000000000000C0000000E0002001B80070E1
:101323003FF80061FFC000C3030001C60600038C41
:10133300060003080C0006080C000E18183F1E10C8
:101343001BF31F903F0700803C1C0190707C0190B1
:1013530060FE01A0C3F801A00FD803A00818036022
:1013630000180340001803C000180380001803008E
:1013730000180000001800000010000000300000FA
:1013830000300000000000000000B2E20000000096
:10139300000000000000000000000000020C100824
:1013A300071FF80403BFF00201BC300303EC300352
:1013B300015C600300D8600300D860038098620377
:1013C30061B8430771B14306313243063376C3062E
:1013D3003A64C7063EECC0063E78C0063C30400681
:1013E3007C70000678E060067BFFF006F7C000061D
:1013F300E400000640000006000000060000007C38
:1014030000008FF000007C0000000000CAD4000040
:101413000000000000000000000000003F0000008A
:101423007F8000000180000000C0000000C00000B9
:1014330000CE038000CFFFC000DD41800FFE000718
:10144300FFFC000C00F000180FC03E19FF40F31121
:10145300BC6083307FE003B1FE2003338020037040
:101463000030036000100360001807C0000C07C0C1
:1014730000040780000201000003000000010000D7
:0E14830000000000000000000000000000005B
:105EE200900017FEE0FCA3E0FD900016E02DFD906F
:0D5EF2000015E03CFC90001BE0FAA3E0FB73
:105EFF0090001DEAF0A3EBF0125F4190001DE0FE51
:065F0F00A3E0FF02604464
:0E555A00900009EEF0A3EFF0A3ECF0A3EDF04B
:10556800900009E0FEA3E0FFC3EB9FFFEA9ECF2473
:1055780001CF3400900013F0A3EFF090000BE0FE91
:10558800A3E0FFC3900010E09FFF90000FE09ECFC4
:105598002401CF3400900015F0A3EFF090000BE049
:1055A800FCA3E0FDEB24FFFBEA34FFFA90000FE0D8
:1055B800FEA3E024FFFFEE34FF90003FF0A3EFF0DE
:1055C800900009E0FEA3E0FF125E36D292C293E497
:1055D800FDFCD3900016E09D900015E09C4030E45F
:1055E800FBFAD3900014E09B900013E09A401990C6
:1055F8000011E0F580C291D291A3E0F580C291D26A
:10560800910BBB00010A80DA0DBD00010C80C3D2EA
:1056180093900083E024FFFB900082E034FFFA902F
:105628000085E024FFFE900084E034FF90003FF006
:0B563800A3CEF0E4FDFCFFFE025E3696
:0E460E00900009EEF0A3EFF0A3ECF0A3EDF0A6
:10461C00E4900013F0A3F0A3F0A3F0900009E0FEE7
:10462C00A3E0FFC3EB9FFFEA9E900017F0A3EFF00F
:10463C0090000BE0FAA3E0FBC3900010E09BFE900F
:10464C00000FE09A900019F0A3CEF0900009E0FF63
:10465C00A3E0900021CFF0A3EFF0A3EAF0A3EBF0DE
:10466C00900017E0FEA3E0FFD39400EE64809480EA
:10467C00400A90001DE4F0A304F08021EF4E700876
:10468C0090001DF0A3F0801574FF90001DF0A3F0B6
:10469C00C3E49FFFE49E900017F0A3EFF090001985
:1046AC00E0FEA3E0FFD39400EE64809480400A9077
:1046BC00001FE4F0A304F08021EF4E700890001F5F
:1046CC00F0A3F0801574FF90001FF0A3F0C3E49FDB
:1046DC00FFE49E900019F0A3EFF0900019E0FEA308
:1046EC00E0FF900017E0FCA3E0FDD39FEE6480F8A0
:1046FC00EC64809890001B4007ECF0A3EDF0800573
:10470C00EEF0A3EFF0E4900011F0A3F090001CE0A9
:10471C002401FF90001BE03400FED3900012E09FB8
:10472C00900011E09E40030247F8900021E0FEA3A8
:10473C00E0FFA3E0FCA3E0FD126023900017E0FE75
:10474C00A3E0FF900014E02FF0900013E03EF090F7
:10475C000019E0FEA3E0FF900016E02FF09000158A
:10476C00E03EF090001BE0FEA3E0FF900013E0FCA5
:10477C00A3E0FDD39FEE6480F8EC6480984020EDBC
:10478C009FFFEC9E900013F0A3EFF090001DE0FE55
:10479C00A3E0FF900022E02FF0900021E03EF0908B
:1047AC00001BE0FEA3E0FF900015E0FCA3E0FDD3AE
:1047BC009FEE6480F8EC6480984020ED9FFFEC9EA7
:1047CC00900015F0A3EFF090001FE0FEA3E0FF9027
:1047DC000024E02FF0900023E03EF0900012E00463
:0C47EC00F07006900011E004F002471885
:0147F800229E
:105A2A00900005EAF0A3EBF0900001EEF0A3EFF08E
:105A3A00A3ECF0A3EDF0C007A3E0FAA3E0FB90000B
:105A4A0003E0FFA3E090000FCFF0A3EFF0D007121E
:105A5A00460E900001E0FAA3E0FBFFAE02C007A3E6
:105A6A00E0FCA3E0FD900007E0FFA3E090000FCF69
:105A7A00F0A3EFF0D00712460E900007E0FCA3E077
:105A8A00FD900005E0FAA3E0FBA3E0FFA3E090008D
:105A9A000FCFF0A3EFF0900001E0FEA3E0FF124663
:105AAA000E900005E0FAA3E0FBFFAE02C0079000EB
:105ABA0003E0FCA3E0FD900007E0FFA3E090000FE5
:0A5ACA00CFF0A3EFF0D00702460E64
:105FB900C007900007E0FFA3E090000FCFF0A3EF28
:105FC900F090007EE0FFA3E0900011CFF0A3EFF086
:055FD900D00702555A3B
:104C8D00900019F0A3EFF0900005E0FFA3E0900075
:0E4C9D001BCFF0A3EFF0900001E0FEA3E0FFBC
:104CAB00900015ECF0A3EDF0900013EEF0A3EFF0F5
:104CBB00900017EAF0A3EBF02FFFEE3AA3125EE59C
:104CCB00900017E0FEA3E0FFC3900014E09FFF905D
:104CDB000013E09EFE900019125EE6900017E0FEB6
:104CEB00A3E0FF900014E02FFF900013E03EFE9036
:104CFB000019E0FCA3E0FDC3900016E09DFD9000C1
:104D0B0015E09C125EF6900017E0FEA3E0FFC39047
:104D1B000014E09FFF900013E09EFE900019E0FC52
:104D2B00A3E0FDC3900016E09DFD900015E09C12E2
:104D3B005EF6900019E0FEA3E0FF900014E02FFF59
:104D4B00900013E03E125EE2900019E0FEA3E0FF3C
:104D5B00C3900014E09FFF900013E09E125EE29060
:104D6B000019E0FEA3E0FF900014E02FFF9000136A
:104D7B00E03EFE900017E0FCA3E0FDC3900016E0C0
:104D8B009DFD900015E09C125EF6900019E0FEA3CD
:104D9B00E0FFC3900014E09FFF900013E09EFE9095
:104DAB000017E0FCA3E0FDC3900016E09DFD900012
:0F4DBB0015E09CFC90001BE0FAA3E0FB025EFFFA
:10441800900001EEF0A3EFF0A3ECF0A3EDF0A3EA17
:04442800F0A3EBF022
:10442C00E490000BF0A3F0900007E0FEA3E0FF90F7
:10443C00000DEEF0A3EFF025E0FFEE33FEC37403A6
:10444C009F900012F0E49E900011F0900009E07033
:10445C0002A3E0700302455B90000DE0FEA3E0FFB9
:10446C0090000BE0FCA3E0FDD39FEE6480F8EC64BD
:10447C008098400302460D90000FECF0A3EDF090F5
:10448C00000DE0FEA3E0FFD3900010E09FEE6480EF
:10449C00F890000FE0648098502B900003E0FCA390
:1044AC00E0FD90000BE0FAA3E0FB90000FE0FFA30F
:1044BC00E0CF124C8D900010E004F070C290000F11
:1044CC00E004F080BA900011E0FCA3E0FDC3EC64C2
:1044DC00809480502390000BE0FEA3E07802C3335D
:1044EC00CE33CED8F92DFFEC3ECF2406CF3400903E
:1044FC000011F0A3EFF0804390000DE0FEA3E0FF6D
:10450C00C390000CE09FFF90000BE09EFEEF780242
:10451C00C333CE33CED8F9FF900012E02FFF9000BA
:10452C0011E03ECF240ACF3400F0A3EFF090000E40
:10453C00E024FFF090000DE034FFF090000CE0045C
:10454C00F0600302446490000BE004F002446490B9
:10455C00000DE0FEA3E0FF90000BE0FAA3E0FBD31C
:10456C009FEE6480F8EA648098400302460D900048
:10457C0003E0FCA3E0FDEE124C8D900011E0FCA3D7
:10458C00E0FDC3EC64809480502390000BE0FEA30C
:10459C00E07802C333CE33CED8F92DFFEC3ECF24D6
:1045AC0006CF3400900011F0A3EFF0804390000D83
:1045BC00E0FEA3E0FFC390000CE09FFF90000BE037
:1045CC009EFEEF7802C333CE33CED8F9FF900012A3
:1045DC00E02FFF900011E03ECF240ACF3400F0A36F
:1045EC00EFF090000EE024FFF090000DE034FFF0AF
:1045FC0090000CE004F0700690000BE004F0024513
:01460C005B52
:01460D00228A
:10420000F0900021E090002FF0900019E0FAA3E078
:01421000FBB2
:10421100900025EEF0A3EFF0900029EAF0A3EBF077
:08422100900027ECF0A3EDF082
:1042290090007EE0FFA3E0900033CFF0A3EFF09081
:10423900002DE024E0F0A3E0F9C313FF7E00900015
:1042490025E0FAA3E02FFFEE3ACF24FFFBEF34FF7E
:10425900FAE9FFA3E0F8A3E02FFFEE38CF24FFCF60
:1042690034FF90003FF0A3EFF0900025E0FEA3E0BB
:10427900FF125E3690002FE0600302432090003168
:10428900F090002EE0FF900031E0FEC39F40030252
:1042990043DFEFB40C1790002DE075F00CA4240354
:1042A900F582E5F03400F583E5822E801A9000311D
:1042B900E0FF90002DE075F010A42477F582E5F079
:1042C9003404F583E5822FF582E43583F583E4939D
:1042D900900030F0E4900032F090002EE0C313FF1C
:1042E900900032E0C39F5026900030E030E0059006
:1042F9000029800390002BE0FEA3E0FF12604490A8
:104309000030E0C313F0900032E004F080CB90005D
:1043190031E004F002428AE4900031F090002EE08E
:10432900FF900031E0FEC39F40030243DFEFB40C6E
:104339001790002DE075F00CA42403F582E5F03404
:1043490000F583E5822E801A900031E0FF90002D60
:10435900E075F010A42477F582E5F03404F583E5DF
:10436900822FF582E43583F583E493900030F0E4FD
:10437900900032F090002EE0C313FF900032E0FE6F
:10438900C39F5049900029E0FDA3E090007ECDF045
:10439900A3EDF0900030E030E024EEFF900026E03D
:1043A9002FFF900025E03400FE900031E0FD9000E1
:1043B90028E02DFD900027E03400FC1260239000D6
:1043C90030E0C313F0900032E004F080A790003190
:1043D900E004F0024325900033E0FFA3E090007E63
:1043E900CFF0A3EFF0900083E024FFFB900082E080
:1043F90034FFFA900085E024FFFE900084E034FF4A
:0F44090090003FF0A3CEF0E4FDFCFFFE025E3614
:1058A800900005EEF0A3EFF0A3ECF0A3EDF0A3EB6E
:1058B800F090000AE0FBA3E0FAA3E0F91231BDFF83
:1058C800D3947E4003025969EFC3942050030259D0
:1058D80069900083E024FFFD900082E034FFFC9093
:1058E8000005E0FEA3E0FFD39DEE9C507490008578
:1058F800E024FFFB900084E034FFFA900007E0FC0E
:10590800A3E0FDD39BEC9A5058900080E0FBA3E005
:1059180090002BCBF0A3EBF090000AE0FBA3E0FA99
:10592800A3E0F91231BD90002DF0900009E090003D
:105938002EF090000DE090002FF090007E12420CA7
:10594800900009E0C313FF900006E02FF0900005D7
:10595800E03400F090000BE475F00112326A02584E
:02596800B92262
:085DED009000B6EFF0A3EDF009
:105DF500A31233FD000000019000B7E0FF14F0EF9F
:105E05006020A3E0F8A3E0F9A3E0FAA3E0FB90008B
:105E1500B6E0FFE4FCFDFE1232B59000B81233F196
:105E250080D69000B8E0FCA3E0FDA3E0FEA3E0FF70
:015E3500224A
:0E514C0090009FEEF0A3EFF0A3ECF0A3EDF0C7
:10515A00E49000ABF09000A9F09000A7E0FF900067
:10516A00A9E0FEC39F400302525CC3EF9E14FD7F79
:10517A000A125DEDA804A905AA06AB079000A3E0F0
:10518A00FCA3E0FDA3E0FEA3E0FF123340E47B0AA8
:10519A00FAF9F81233409000AAEBF0A3E0705790A6
:1051AA0000A7E014FF9000A9E0FEC39F5048A3E0C7
:1051BA00703E9000A8E0F9C3138EF0A4FF9000A0FF
:1051CA00E02FFF90009FE035F0FEC0079000A1E0BD
:1051DA00FCA3E0FD90007EE0FAA3E0FB900080E0F3
:1051EA00FFA3E090002BCFF0A3EFF0A37420804D33
:1051FA009000AB7401F09000A8E0F9C313FFA3E09C
:10520A00FEEF8EF0A4FF9000A0E02FFF90009FE039
:10521A0035F0FEC0079000A1E0FCA3E0FD90007EFF
:10522A00E0FAA3E0FB900080E0FFA3E090002BCF20
:10523A00F0A3EFF09000AAE0243090002DF0A3E94B
:10524A00F0E4A3F0D0071242119000A9E004F002A2
:02525A0051639E
:01525C00222F
:1036DB00900027ECF0A3EDF0A3EAF0A3EBF0900041
:0636EB0025EEF0A3EFF054
:1036F100900037EEF0A3EFF0900035E4F0A3742EC4
:10370100F0E4900033F0A3F0900035E0FEA3E0FF79
:10371100900033E0FCA3E0FDC39FEC9E4003023820
:10372100F490002DE0FBA3E0FAA3E0F91231BDFF14
:10373100900A6775F022ED12342EEC75F022A42563
:1037410083F583E4936F60030238E3900001123143
:10375100D6FF900033A3E0900A6875F02212342E50
:10376100EC75F022A42583F583E4936F600302389E
:10377100E3900025E0FAA3E0FBFFAE02C006C0071C
:10378100A3E0FCA3E0FDEB240FFBE43AFA90002751
:10379100E0FEA3E0240FFFE43E90003FF0A3EFF032
:1037A100D007D006125E36E4900031F0E49000328A
:1037B100F0900032E0FFC3940840030238D4900037
:1037C10030E0705AA3E0FE900033E0FCA3E0900AE1
:1037D1006975F02212342EEC75F022A42583F5834D
:1037E100E5822EF582E43583F583E493FD3395E09C
:1037F100FC74807E00A807088006CEA2E713CE13D2
:10380100D8F8FFEE5CFEEF5D4E6005900029800365
:1038110090002BE0FEA3E0FF1260440238CB900041
:1038210029E0FFA3E090007ECFF0A3EFF0900031FC
:10383100E0FF900033E0FCA3E0900A6975F02212EA
:10384100342EEC75F022A42583F583E5822FF582D1
:10385100E43583F583E493FD3395E0FC900032E099
:10386100FF74807E00A807088006CEA2E713CE135E
:10387100D8F8FFEE5CFEEF5D4E6011900025E0FE92
:10388100A3E0FFA3E0FCA3E0FD126023900026E08B
:1038910004F07006900025E004F0900037E0FEA3EC
:1038A100E0FFC3900026E09FFD900025E09EFCED27
:1038B10064104C7015EEF0A3EFF0900028E004F0D6
:1038C1007011900027E004F08009900032E004F0CC
:1038D1000237B2900031E004F0E0C39420500302BB
:1038E10037AD900034E004F07006900033E004F04E
:1038F100023709900083E024FFFB900082E034FF4F
:10390100FA900085E024FFFE900084E034FF9000EF
:0D3911003FF0A3CEF0E4FDFCFFFE025E36A9
:10391E00900027ECF0A3EDF0A3EAF0A3EBF09000FB
:06392E0025EEF0A3EFF00E
:10393400900037EEF0A3EFF0900035E4F0A37407A5
:10394400F0E4900033F0A3F0900035E0FEA3E0FF34
:10395400900033E0FCA3E0FDC39FEC9E4003023BD8
:103964003790002DE0FBA3E0FAA3E0F91231BDFF8C
:1039740090108375F04AED12342EEC75F04AA425AC
:1039840083F583E4936F6003023B269000011231B8
:10399400D6FF900033A3E090108475F04A12342EC1
:1039A400EC75F04AA42583F583E4936F6003023B2E
:1039B40026900025E0FAA3E0FBFFAE02C006C00794
:1039C400A3E0FCA3E0FDEB2417FBE43AFA90002704
:1039D400E0FEA3E02417FFE43E90003FF0A3EFF0E5
:1039E400D007D006125E36E4900031F0E490003245
:1039F400F0900032E0FFC394084003023B179000AC
:103A040030E0705AA3E0FE900033E0FCA3E0901095
:103A14008575F04A12342EEC75F04AA42583F5839B
:103A2400E5822EF582E43583F583E493FD3395E056
:103A3400FC74807E00A807088006CEA2E713CE138C
:103A4400D8F8FFEE5CFEEF5D4E6005900029800320
:103A540090002BE0FEA3E0FF126044023B0E9000B6
:103A640029E0FFA3E090007ECFF0A3EFF0900031B7
:103A7400E0FF900033E0FCA3E090108575F04A125B
:103A8400342EEC75F04AA42583F583E5822FF58264
:103A9400E43583F583E493FD3395E0FC900032E054
:103AA400FF74807E00A807088006CEA2E713CE1319
:103AB400D8F8FFEE5CFEEF5D4E6011900025E0FE4D
:103AC400A3E0FFA3E0FCA3E0FD126023900026E046
:103AD40004F07006900025E004F0900037E0FEA3A7
:103AE400E0FFC3900026E09FFD900025E09EFCEDE2
:103AF40064184C7015EEF0A3EFF0900028E004F089
:103B04007011900027E004F08009900032E004F086
:103B14000239F5900031E004F0E0C3944850030208
:103B240039F0900034E004F07006900033E004F0C3
:103B340002394C900083E024FFFB900082E034FFC4
:103B4400FA900085E024FFFE900084E034FF9000AA
:0D3B54003FF0A3CEF0E4FDFCFFFE025E3664
:103B6100900027ECF0A3EDF0A3EAF0A3EBF09000B6
:063B710025EEF0A3EFF0C9
:103B7700900037EEF0A3EFF0900035E4F0A3740463
:103B8700F0E4900033F0A3F0900035E0FEA3E0FFEF
:103B9700900033E0FCA3E0FDC39FEC9E4003023D91
:103BA7007A90002DE0FBA3E0FAA3E0F91231BDFF04
:103BB70090128975F082ED12342EEC75F082A425EF
:103BC70083F583E4936F6003023D6990000112312E
:103BD700D6FF900033A3E090128A75F08212342E3C
:103BE700EC75F082A42583F583E4936F6003023DAF
:103BF70069900025E0FAA3E0FBFFAE02C006C0070C
:103C0700A3E0FCA3E0FDEB241FFBE43AFA900027B6
:103C1700E0FEA3E0241FFFE43E90003FF0A3EFF097
:103C2700D007D006125E36E4900031F0E4900032FF
:103C3700F0900032E0FFC394084003023D5A900021
:103C470030E0705AA3E0FE900033E0FCA3E090124E
:103C57008B75F08212342EEC75F082A42583F583E0
:103C6700E5822EF582E43583F583E493FD3395E011
:103C7700FC74807E00A807088006CEA2E713CE1347
:103C8700D8F8FFEE5CFEEF5D4E60059000298003DB
:103C970090002BE0FEA3E0FF126044023D5190002C
:103CA70029E0FFA3E090007ECFF0A3EFF090003172
:103CB700E0FF900033E0FCA3E090128B75F08212D6
:103CC700342EEC75F082A42583F583E5822FF582E7
:103CD700E43583F583E493FD3395E0FC900032E00F
:103CE700FF74807E00A807088006CEA2E713CE13D4
:103CF700D8F8FFEE5CFEEF5D4E6011900025E0FE08
:103D0700A3E0FFA3E0FCA3E0FD126023900026E000
:103D170004F07006900025E004F0900037E0FEA361
:103D2700E0FFC3900026E09FFD900025E09EFCED9C
:103D370064204C7015EEF0A3EFF0900028E004F03B
:103D47007011900027E004F08009900032E004F041
:103D5700023C38900031E004F0E0C3948050030245
:103D67003C33900034E004F07006900033E004F038
:103D7700023B8F900083E024FFFB900082E034FF3A
:103D8700FA900085E024FFFE900084E034FF900065
:0D3D97003FF0A3CEF0E4FDFCFFFE025E361F
:10343A00900017ECF0A3EDF0A3EAF0A3EBF09000F4
:06344A0015EEF0A3EFF007
:10345000900022EEF0A3EFF0E4A3F090001DE0FB5B
:10346000A3E0FAA3E0F91231BD70030236DA90004E
:1034700024E0600302359C900020E0FFC313FDC3ED
:10348000900083E09DFD900082E09400FCD39000CA
:1034900016E09D900015E09C40030236DAC39000D0
:1034A00085E09FFF900084E09400FE900017E0FC10
:1034B000A3E0FDD39FEC9E40030236DA90001DE0AE
:1034C000FBA3E0FAA3E0F91231BDFFD394804008DA
:1034D0009000247401F08083EFB40D2E900020E062
:1034E000FF900018E02FF0900017E03400F09000FB
:1034F00022E0FFA3E0900015CFF0A3EFF090001EB4
:10350000E475F00112326A02358F900020E0D39406
:1035100010900015E0FEA3E0FF402F90001BE0FBA1
:10352000A3E090002BCBF0A3EBF090001DE0FBA3F9
:10353000E0FAA3E0F91231BD90002DF0A37410124F
:103540004200900016E02408803DA3E0FCA3E0FDCB
:1035500090001BE0FBA3E090002BCBF0A3EBF090DE
:10356000001DE0FBA3E0FAA3E0F91231BD90002DAD
:10357000F0900020E090002E124200900020E0C366
:1035800013FF900016E02FF0900015E03400F0904B
:10359000001EE475F00112326A02345B900020E0F4
:1035A000F9FF7E00C3900083E09FFD900082E09EC3
:1035B000FCD3900016E09D900015E09C400302367D
:1035C000DAC3900085E09FFF900084E09EFE9000AB
:1035D00017E0FCA3E0FDD39FEC9E40030236DAE443
:1035E000900024F0E9B42042900015E0FEA3E0FF33
:1035F00090001BE0FBA3E090002BCBF0A3EBF0903E
:10360000001DE0F9A3E0FAA3E090002DC9F0A3EAC1
:10361000F0A3E9F0900021E0900030F0900019E074
:10362000FAA3E0FB123B610236BB900020E0641875
:103630009000157044E0FEA3E0FFA3E0FCA3E0FDD2
:1036400090001BE0FBA3E090002BCBF0A3EBF090ED
:10365000001DE0F9A3E0FAA3E090002DC9F0A3EA71
:10366000F0A3E9F0900021E0900030F0900019E024
:10367000FAA3E0FB12391E8042E0FEA3E0FFA3E0C4
:10368000FCA3E0FD90001BE0FBA3E090002BCBF03F
:10369000A3EBF090001DE0F9A3E0FAA3E090002D69
:1036A000C9F0A3EAF0A3E9F0900021E0900030F027
:1036B000900019E0FAA3E0FB1236DB90001EE475DF
:1036C000F00212326A900020E0FF900016E02FF026
:0A36D000900015E03400F002345BB6
:0136DA0022CD
:105B7D00900008EEF0A3EFF0A3ECF0A3EDF0A3EA94
:045B8D00F0A3EBF0A6
:105B9100900010E0FBA3E0FAA3E0F91260C1EF78F6
:105BA10003C333CE33CED8F9FFC3900083E09FFF08
:105BB100900082E09EC313FEEF13FF900009E02FD7
:105BC100FF900008E03EFE90000AE0FCA3E0FD909B
:105BD100000EE0FBA3E090001BCBF0A3EBF09000E4
:105BE10010E0F9A3E0FAA3E090001DC9F0A3EAF0E8
:105BF100A3E9F0900013E0900020F0900014E090F1
:0E5C01000021F090000CE0FAA3E0FB02343A20
:10564300900000EEF0A3EFF0900004EBF0A3EAF07B
:0B565300A3E9F0900002ECF0A3EDF0E2
:10565E00900000E0FAA3E0FFAE02C006C0072427C8
:10566E00FBE43AFAA3E0FEA3E02427FFE43E900019
:10567E003FF0A3EFF0D007D006125E36E49000079D
:10568E00F0A3F0900008E025E0FF900007E033FE65
:10569E00900004E0FBA3E0FAA3E0F98F828E831260
:1056AE0031D690000AF0E92FF9EA3EFA9000011285
:1056BE0031D6900009F0FEA3E0FDEDFF126044909C
:1056CE000008E004F07006900007E004F0C39000BC
:1056DE0008E09440900007E06480948640A5900016
:1056EE0083E024FFFB900082E034FFFA900085E017
:1056FE0024FFFE900084E034FF90003FF0A3CEF034
:08570E00E4FDFCFFFE025E3623
:105F6D00E4FDFCC3ED9FEE6480F8EC648098501561
:105F7D00E4FBFA0BBB00010ABA03F8BBE8F50DBD53
:055F8D0000010C80DEA4
:015F920022EC
:105F9300E4FDFCC3ED9FEE6480F8EC64809850153B
:105FA300E4FBFA0BBB00010AEB64014A70F50DBD7B
:055FB30000010C80DE7E
:015FB80022C6
:03000000025C0F90
:0C5C0F00787FE4F6D8FD758107025C5632
:105EAA0056583A0056793A004348583A00434859F6
:105EBA003A0041646A757374204F4B2100546F7520
:105ECA00636820416E79776865726520546F204354
:085EDA006F6E74696E756500BE
:105F220042009B2C7342009D1E1342008F0F284299
:045F3200009100EAF0
:06611A00A2C0E433FF22E5
:09611100D2B7D2B6D2B4D2B62244
:10607B00E4FEC2B6EF25E0FF92B4C2B6000000D238
:09608B00B60000000EEEB408EBB3
:0160940022E9
:10600100E4FDFFFEEF25E0FFEE33FED2B600000017
:10601100C2B600000030B504EF4401FF0DEDB40C31
:01602100E39B
:01602200225B
:10609500C2B712607BD2B600000000C2B600000095
:0660A50000126001D2B7F9
:0160AB0022D2
:024B3600A907CD
:104B3800E490003CF0A3F0FBFAAF01126095AC06DC
:104B4800AD07EB25E0FFEA33FE741E2FF5827400F3
:104B58003EF583ECF0A3EDF00BBB00010AEB640F0C
:104B68004A70D6E4FAFBEB2401FEE43A90001CF00C
:104B7800A3CEF090001CE0FEA3E0FFC3940FEE94D8
:104B8800004003024C32EF25E0FFEE33FE741E2F87
:104B9800F58274003EF583E0FCA3E0FDEB25E0FF21
:104BA800EA33FE741E2FF58274003EF583E0FEA3FF
:104BB800E0FFD39DEE9C405E90003EEEF0A3EFF048
:104BC80090001DE025E0FF90001CE033FE741E2FCE
:104BD800F58274003EF583E0FCA3E0FDEB25E0FFE1
:104BE800EA33FE741E2FF58274003EF583ECF0A3C1
:104BF800EDF090003EE0FCA3E0FD90001DE025E014
:104C0800FF90001CE033FE741E2FF58274003EF501
:104C180083ECF0A3EDF090001DE004F06003024B7C
:104C28007B90001CE004F0024B7B0BBB00010AEBFD
:104C3800640E4A6003024B6EE490003CF0A3F0FA65
:104C48007B05EB25E0FFEA33FE741E2FF582740026
:104C58003EF583E0FEA3E0FF90003DE02FF09000DA
:104C68003CE03EF00BBB00010AEB640A4A70D390AB
:104C7800003CE0FEA3E0FF7C007D05123215A3EEA8
:044C8800F0A3EFF0B6
:014C8C002205
:0B5D8A00900014EBF0A3EAF0A3E9F096
:105D95007FD0124B3690001AEEF0A3EFF07F9012F1
:105DA5004B36C390001BE0946490001AE0940040C9
:105DB50008EF9464EE940050037F002290001AE0EF
:105DC500F9A3E0FD900014E0FBA3E0FAA3E0C98D80
:105DD500F0123296900017E0FBA3E0FAA3E0F9EE8B
:075DE5008FF01232967F01DE
:015DEC002294
:0B4F0300900006EBF0A3EAF0A3E9F039
:104F0E009000177401F0A37400F0A3740EF07B01EF
:104F1E007A00790C125D8AEF7002FF2290001774EE
:104F2E0001F0A37400F0A37412F07B017A007910E3
:104F3E00125D8AEF7002FF2290000CE0FEA3E0FFEC
:104F4E00900010E0FCA3E0FDD39FEC9E500EED24EC
:104F5E0014FDE43CFCC3EF9DEE9C402A900010E053
:104F6E00FEA3E0FF90000CE0FCA3E0FDD39FEC9EBF
:104F7E004003025031ED2414FDE43CFCC3EF9DEEE2
:104F8E009C400302503190000EE0FEA3E0FF900023
:104F9E0012E0FCA3E0FDD39FEC9E500EED2414FD19
:104FAE00E43CFCC3EF9DEE9C4024900012E0FEA377
:104FBE00E0FF90000EE0FCA3E0FDD39FEC9E50635B
:104FCE00ED2414FDE43CFCC3EF9DEE9C5055900087
:104FDE0010E0FEA3E0FF90000DE02FFF90000CE02C
:104FEE003EC313F9EF13FF900006E0FBA3E0FAA314
:104FFE00E0C98FF0123296900012E0FEA3E0FF900F
:10500E00000FE02FFF90000EE03EC313F9EF13FFE9
:10501E00900009E0FBA3E0FAA3E0C98FF0123296EC
:05502E007F01227F005C
:01503300225A
:105C9B00E49000C2F09000C2E0706A9000097401B9
:105CAB00F0A37400F0A37499F07B017A007997123A
:105CBB004F03EF60E67F0A7E00125F6D9000097460
:105CCB0001F0A37400F0A374C5F07B017A0079C3D3
:105CDB00124F03EF60E69000C3E0FEA3E0FF9000DD
:105CEB0097E0B506B0A3E0B507AB9000C5E0FEA307
:105CFB00E0FF900099E06E7003A3E06F7097900047
:0A5D0B00C204F080909000C2E0FF97
:015D1500226B
:105034009000C7EEF0A3EFF0A3ECF0A3EDF0900026
:105044007E74F8F0A3E4F09000C7E0FAA3E0FB2438
:10505400F4FFEA34FFFEC007EB240DFBE43AFAA3A5
:10506400E0FFA3E090000FCFF0A3EFF0D0071246CB
:105074000E9000C7E0FAA3E0FBFFAE02C006C00733
:105084009000CAE024F4FD9000C9E034FFFCE0FE87
:10509400A3E0240DFFE43E90000FF0A3EFF0D0074F
:1050A400D00612460E9000C8E02401FF9000C7E02D
:1050B4003400FE9000CAE02401FD9000C9E03400F1
:1050C400FC1260239000C8E024FFFF9000C7E03486
:1050D400FFFE9000CAE02401FD9000C9E03400FC0A
:1050E4001260239000C8E02401FF9000C7E0340060
:1050F400FE9000CAE024FFFD9000C9E034FFFC12DA
:1051040060239000C8E024FFFF9000C7E034FFFE56
:105114009000CAE024FFFD9000C9E034FFFC126057
:10512400239000C7E0FEA3E0FFA3E0FCA3E0FD9012
:10513400007EE0FAA3E0FB900007E4F0A37406F01D
:08514400E4A3F0A3F0024418FB
:105D1600900005EEF0A3EFF0A3ECF0A3EDF0AF03D7
:105D260090007EEAF0A3EFF0900005E0FEA3E0FF0E
:105D3600126023900006E02401FF900005E0340085
:105D4600FE900007E0FCA3E0FD126023900005E052
:105D5600FEA3E0FF900008E02401FD900007E03478
:105D660000FC126023900006E02401FF900005E08D
:105D76003400FE900008E02401FD900007E03400A6
:045D8600FC02602398
:104DCA00E4900005F07B0190000904F0A37400F060
:104DDA00A37499F07A007997124F03EF7003024E89
:104DEA00C79000057401F090008FE0FEA3E0FFD3A6
:104DFA00900098E09F900097E09E400BAB07AA06B0
:104E0A00E0FEA3E0FF8013900097E0FEA3E0FBAA78
:104E1A000690008FE0FEA3E0FFC3EF9BFFEE9AFE31
:104E2A00E49400FDE49400FCE47BE87A03F9F812C8
:104E3A0032B5C006C00790009BE0FEA3E0FBAA06BD
:104E4A00E4F9F8D007D006123340900093EEF0A3AD
:104E5A00EFF0900091E0FEA3E0FFD390009AE09F6C
:104E6A00900099E09E400BAB07AA06E0FEA3E0FF84
:104E7A008013900099E0FEA3E0FBAA06900091E05F
:104E8A00FEA3E0FFC3EF9BFFEE9AFEE49400FDE46D
:104E9A009400FCE47BE87A03F9F81232B5C006C044
:104EAA000790009DE0FEA3E0FBAA06E4F9F8D0070C
:104EBA00D006123340900095EEF0A3EFF0900093E5
:104ECA00E0FEA3E0FFA3E0FDA3E0900093CDF0A3F2
:104EDA00EDF0A3EEF0A3EFF0900093E0FEA3E0FF65
:104EEA00C3900083E09FFF900082E09E900093F0C1
:084EFA00A3EFF0900005E0FFBA
:014F0200228C
:10233200E490007DF0F090007EF0A3741FF074FF33
:10234200900080F0A3F0FFFE125AD490007E74F841
:10235200F0A3E4022AD620C0FD125C9BEF604290FB
:102362000097E0FEA3E0FFE4FCFD90007DE0FB753A
:10237200F008A4245DF582E43400F5831233F19071
:102382000099E0FEA3E0FFE4FCFDEB75F008A42455
:1023920061F582E43400F5831233F190007DE004AC
:1023A200F090007DE024FE602914604514606B24E7
:1023B2000370A374FFFFFE125AD430C0FD90008355
:1023C200E024CDFF900082E034FFFE7D327C0002EB
:1023D2002AE674FFFFFE125AD430C0FD900085E059
:1023E20024CDFD900084E034FFFC7F327E00022A7F
:1023F200E674FFFFFE125AD430C0FD900083E02441
:10240200CDFF900082E034FFFE900085E024CDFDF8
:10241200900084E034FFFC022AE674FFFFFE125AA9
:10242200D430C0FD90005DE0FCA3E0FDA3E0FEA37C
:10243200E0FF900065E0F8A3E0F9A3E0FAA3E0FB77
:10244200D31233E0403490005DE0F8A3E0F9A3E05A
:10245200FAA3E0FB900065E0FCA3E0FDA3E0FEA38D
:10246200E09BFFEE9AFEED99FDEC98FCEF2401FF54
:10247200E43EFEE43DFDE43C8036900065E0F8A3D6
:10248200E0F9A3E0FAA3E0FB90005DE0FCA3E0FD2D
:10249200A3E0FEA3E0C39BFFEE9AFEED99FDEC984C
:1024A200FCEF24FFFFEE34FFFEED34FFFDEC34FFC2
:1024B200FCE47BE87A03F9F81232B5C006C0079053
:1024C2000083E0249CFF900082E034FFAB07FAE433
:1024D200F9F8D007D006123340E41230FE900041E2
:1024E2001233F190005DE0FCA3E0FDA3E0FEA3E067
:1024F200FF900065E0F8A3E0F9A3E0FAA3E0FBD3C4
:102502001233E0E4FFFE7D487C42900041E0F8A3F4
:10251200E0F9A3E0FAA3E0FB4034122EDFE4FBFA79
:10252200797A7844122FE8C004C005C006C007902B
:10253200005DE0FCA3E0FDA3E0FEA3E0FFE41230B7
:10254200FED003D002D001D000122DEA8032122E2A
:10255200DFE4FBFA797A7844122FE8C004C005C0A0
:1025620006C00790005DE0FCA3E0FDA3E0FEA3E04F
:10257200FFE41230FED003D002D001D000122DEEC3
:1025820012313C900051EEF0A3EFF0900061E0FCBC
:10259200A3E0FDA3E0FEA3E0FF900071E0F8A3E05A
:1025A200F9A3E0FAA3E0FBD31233E0401D900061EF
:1025B200E0F8A3E0F9A3E0FAA3E0FB900071E0FCED
:1025C200A3E0FDA3E0FEA3E0801C900071E0F8A36D
:1025D200E0F9A3E0FAA3E0FB900061E0FCA3E0FDD8
:1025E200A3E0FEA3E0C39BFFEE9AFEED99FDEC98FB
:1025F200FCEF24FFFFEE34FFFEED34FFFDEC34FF71
:10260200FCE47BE87A03F9F81232B5C006C0079001
:102612000085E0249CFF900084E034FFAB07FAE4DD
:10262200F9F8D007D006123340E41230FE90004988
:102632001233F1900061E0FCA3E0FDA3E0FEA3E011
:10264200FF900071E0F8A3E0F9A3E0FAA3E0FBD366
:102652001233E0E4FFFE7D487C42900049E0F8A39B
:10266200E0F9A3E0FAA3E0FB4034122EDFE4FBFA28
:10267200797A7844122FE8C004C005C006C00790DA
:102682000061E0FCA3E0FDA3E0FEA3E0FFE4123062
:10269200FED003D002D001D000122DEA8032122ED9
:1026A200DFE4FBFA797A7844122FE8C004C005C04F
:1026B20006C007900061E0FCA3E0FDA3E0FEA3E0FA
:1026C200FFE41230FED003D002D001D000122DEE72
:1026D20012313C900055EEF0A3EFF090006DE0FC5B
:1026E200A3E0FDA3E0FEA3E0FF900075E0F8A3E005
:1026F200F9A3E0FAA3E0FBD31233E0403490006D7B
:10270200E0F8A3E0F9A3E0FAA3E0FB900075E0FC97
:10271200A3E0FDA3E0FEA3E09BFFEE9AFEED99FD90
:10272200EC98FCEF2401FFE43EFEE43DFDE43C8036
:1027320036900075E0F8A3E0F9A3E0FAA3E0FB907D
:10274200006DE0FCA3E0FDA3E0FEA3E0C39BFFEE6F
:102752009AFEED99FDEC98FCEF24FFFFEE34FFFEAC
:10276200ED34FFFDEC34FFFCE47BE87A03F9F81268
:1027720032B5C006C007900083E0249CFF9000821F
:10278200E034FFAB07FAE4F9F8D007D00612334081
:10279200E41230FE9000451233F190006DE0FCA38C
:1027A200E0FDA3E0FEA3E0FF900075E0F8A3E0F9EE
:1027B200A3E0FAA3E0FBD31233E0E4FFFE7D487C02
:1027C20042900045E0F8A3E0F9A3E0FAA3E0FB4061
:1027D20034122EDFE4FBFA797A7844122FE8C0042F
:1027E200C005C006C00790006DE0FCA3E0FDA3E0B9
:1027F200FEA3E0FFE41230FED003D002D001D000ED
:10280200122DEA8032122EDFE4FBFA797A78441232
:102812002FE8C004C005C006C00790006DE0FCA30D
:10282200E0FDA3E0FEA3E0FFE41230FED003D002FD
:10283200D001D000122DEE12313C900053EEF0A3E5
:10284200EFF0900069E0FCA3E0FDA3E0FEA3E0FF4F
:10285200900079E0F8A3E0F9A3E0FAA3E0FBD31239
:1028620033E0401D900069E0F8A3E0F9A3E0FAA389
:10287200E0FB900079E0FCA3E0FDA3E0FEA3E08092
:102882001C900079E0F8A3E0F9A3E0FAA3E0FB9042
:102892000069E0FCA3E0FDA3E0FEA3E0C39BFFEE22
:1028A2009AFEED99FDEC98FCEF24FFFFEE34FFFE5B
:1028B200ED34FFFDEC34FFFCE47BE87A03F9F81217
:1028C20032B5C006C007900085E0249CFF900084CA
:1028D200E034FFAB07FAE4F9F8D007D00612334030
:1028E200E41230FE90004D1233F1900069E0FCA337
:1028F200E0FDA3E0FEA3E0FF900079E0F8A3E0F999
:10290200A3E0FAA3E0FBD31233E0E4FFFE7D487CB0
:102912004290004DE0F8A3E0F9A3E0FAA3E0FB4007
:1029220034122EDFE4FBFA797A7844122FE8C004DD
:10293200C005C006C007900069E0FCA3E0FDA3E06B
:10294200FEA3E0FFE41230FED003D002D001D0009B
:10295200122DEA8032122EDFE4FBFA797A784412E1
:102962002FE8C004C005C006C007900069E0FCA3C0
:10297200E0FDA3E0FEA3E0FFE41230FED003D002AC
:10298200D001D000122DEE12313C900057EEF0A390
:10299200EFF0900045E0FCA3E0FDA3E0FEA3E0FF22
:1029A200900041E0F8A3E0F9A3E0FAA3E0FB1230C3
:1029B2008560324030E4FFFE7D7A7C44900045E041
:1029C200F8A3E0F9A3E0FAA3E0FB122DEE90004198
:1029D200E0F8A3E0F9A3E0FAA3E0FB12308560057A
:1029E2004003022AD2900045E0FCA3E0FDA3E0FEF2
:1029F200A3E0FF900041E0F8A3E0F9A3E0FAA3E02E
:102A0200FB123085502EE4FFFE7D7A7CC490004597
:102A1200E0F8A3E0F9A3E0FAA3E0FB122DEE9000A8
:102A220041E0F8A3E0F9A3E0FAA3E0FB12308550FD
:102A320003022AD290004DE0FCA3E0FDA3E0FEA336
:102A4200E0FF900049E0F8A3E0F9A3E0FAA3E0FB7D
:102A5200123085602F402DE4FFFE7D7A7C44900089
:102A62004DE0F8A3E0F9A3E0FAA3E0FB122DEE900B
:102A72000049E0F8A3E0F9A3E0FAA3E0FB123085F5
:102A82006002504C90004DE0FCA3E0FDA3E0FEA3E9
:102A9200E0FF900049E0F8A3E0F9A3E0FAA3E0FB2D
:102AA2001230855045E4FFFE7D7A7CC490004DE0F3
:102AB200F8A3E0F9A3E0FAA3E0FB122DEE9000499F
:102AC200E0F8A3E0F9A3E0FAA3E0FB123085501A84
:102AD200E490007DF074FFFFFE125AD47D327C0038
:102AE2007F327E00125034022358900045E0FCA34E
:102AF200E0FDA3E0FEA3E0FF900041E0F8A3E0F9CF
:102B0200A3E0FAA3E0FB122DEEE4FBFAF9784012FF
:102B12002FE812313C90009BEEF0A3EFF090004DB5
:102B2200E0FCA3E0FDA3E0FEA3E0FF900049E0F893
:102B3200A3E0F9A3E0FAA3E0FB122DEEE4FBFAF91D
:102B42007840122FE812313C90009DEEF0A3EFF096
:102B5200900053E0FEA3E0FF900052E02FFF9000B0
:102B620051E03EC313FEEF13FF90008FEEF0A3EF90
:102B7200F0900057E0FEA3E0FF900056E02FFF9098
:102B82000055E03EC313FEEF13FF900091EEF0A359
:102B9200EFF074FFFFFE125AD4E490007EF0A3F02F
:102BA200900080F0A3741FF0900059E4F0A37432F7
:102BB200F0A3E4F0A37496F090000A74FFF0A374FB
:102BC2005EF0A374AAF0A37401F07B107D967C00E2
:102BD2007F327E001258A890005AE02428F090001C
:102BE20059E03400F090009BE0FEA3E0FFE4FCFD1E
:102BF2009000A31233F19000A77406F0A37410F0B2
:102C020090005BE0FCA3E0FD900059E0FEA3E0FF32
:102C120012514C900059E4F0A37432F090005CE041
:102C22002414F090005BE03400F0E0FCA3E0FD909F
:102C3200000A74FFF0A3745EF0A374AEF0A37401F3
:102C4200F07B107F327E001258A890005AE02428B0
:102C5200F0900059E03400F090009DE0FEA3E0FF08
:102C6200E4FCFD9000A31233F19000A77406F0A3D8
:102C72007410F090005BE0FCA3E0FD900059E0FED0
:102C8200A3E0FF12514C900059E4F0A37432F0908B
:102C9200005CE02414F090005BE03400F0E0FCA360
:102CA200E0FD90000A74FFF0A3745EF0A374B2F02A
:102CB200A37401F07B107F327E001258A890005A54
:102CC200E02428F0900059E03400F090008FE0FEFC
:102CD200A3E0FFE4FCFD9000A31233F19000A7747F
:102CE20006F0A37410F090005BE0FCA3E0FD9000FE
:102CF20059E0FEA3E0FF12514C900059E4F0A37496
:102D020032F090005CE02414F090005BE03400F0BC
:102D1200E0FCA3E0FD90000A74FFF0A3745EF0A350
:102D220074B7F0A37401F07B107F327E001258A8B2
:102D320090005AE02428F0900059E03400F090000E
:102D420091E0FEA3E0FFE4FCFD9000A31233F190BA
:102D520000A77406F0A37410F090005BE0FCA3E0FF
:102D6200FD900059E0FEA3E0FF12514C900059E49F
:102D7200F0A3741EF090005CE0241EF090005BE073
:102D82003400F0E0FCA3E0FD90000A74FFF0A374AD
:102D92005EF0A374BCF0A37401F07B107F1E7E0072
:102DA2001258A8900059E4F0A3741EF090005CE061
:102DB200241EF090005BE03400F0E0FCA3E0FD9004
:102DC200000A74FFF0A3745EF0A374C7F0A3740149
:102DD200F07B107F1E7E001258A8125C9B74FFFFCE
:042DE200FE125AD4AF
:012DE60022CA
:0A5F360042007E0000420080FFFFE1
:0F60E900C2938FA0AF058F80C291D291D2932224
:05612000D2920260E9CB
:0860D60090008BE0FEA3E0FF47
:0B60DE00AD07AC06C292ECFF0260E9C7
:0A60AC00E0FF7E001260B6A3E0FFE3
:0B60B600AD07AC06D292ECFF0260E9DF
:0E60F800AB05AA041260DEAE02AF030260B672
:0B610600900089E0FEA3E0FF0260DED5
:085AD4009000BCEEF0A3EFF01E
:105ADC00A31233FD00000000900083E024FFFB9034
:105AEC000082E034FFFA900085E024FFFE900084F1
:105AFC00E034FF90003FF0A3CEF0E4FDFCFFFE127B
:105B0C005E36D292C2939000BE1233FD00000000AC
:105B1C00900084E0FCA3E0FD900082E0FEA3E0FF97
:105B2C00123203E4FCFD9000BEE0F8A3E0F9A3E020
:105B3C00FAA3E0FBC31233E050349000BCE0FCA3AA
:105B4C00E0FDECF580C291D2918D80C291D291A3EF
:105B5C00E0FCA3E0FDA3E0FEA3E02401FFE43EFE95
:105B6C00E43DFDE43CFC9000BE1233F180A2D293E4
:015B7C002206
:10602300125F41C293D290D29290007EE0FCA3E033
:10603300FDECF580C291D2918D80C291D291D29321
:01604300223A
:10604400AD07AC06C293D290D292ECF580C291D245
:0C60540091AF058F80C291D291D29322AF
:10606000D2B37F327E00125F6DC2B37F327E0012E8
:0B6070005F6DD2B37F327E00025F6DD7
:10525D00126060D2907F117E001260DE7F14125FAB
:10526D006D7FD07E001260DE7F071260B67F421226
:10527D0060B67F181260B67FD11260DEE4FF126057
:10528D00B67F071260B67F101260B67FD21260DE55
:10529D007F011260B67F021260B67FC01260DE7FA2
:1052AD00101260B67F3B1260B6E4FF1260B67F024B
:1052BD001260B67F111260B67FC51260DE7F0312D9
:1052CD0060B67FC81260DEE4FF1260B67F321260F6
:1052DD00B67F361260B67F451260B67F061260B695
:1052ED007F161260B67F371260B67F751260B67F7B
:1052FD00771260B67F541260B67F0C1260B6E4FF71
:10530D001260B67F361260DE7F0A1260B67F3A12E7
:10531D0060DE7F551260B67F2A1260DEE4FF1260F8
:10532D00B6E4FF1260B67F011260B67F3F1260B621
:10533D007F2B1260DEE4FF1260B6E4FF1260B67FD1
:10534D00011260B67FE01260B67F78125F6D7F2923
:10535D007E001260DE7F2C1260DE125E70D2B222F1
:105E3600900039EEF0A3EFF0A3ECF0A3EDF01260C2
:105E4600D69000391260ACEAFF1260B6AF037E004E
:105E56001260B690008D1260D990003B1260AC9033
:0A5E6600003FE0FF1260B002610689
:105F4100900039EEF0A3EFF0AB05AA041260D690F1
:105F510000391260AC90008D1260D9EAFF7E001208
