:1002A80053B1FB43B2041200037F007EF81201131E
:1002B8007FE87E031203927FE87E031203927FE0B9
:1002C8007E071201137FE87E031203927FE87E0304
:1002D8001203927F1F7E001201137FE87E03120330
:0A02E800927FE87E0312039280BFAC
:10039200E4FDFCC3ED9FEE6480F8EC648098501598
:1003A200E4FBFA0BBB00010ABA03F8BBE8F50DBD8A
:0503B20000010C80DEDB
:0103B7002223
:1003B800E4FDFCC3ED9FEE6480F8EC648098501572
:1003C800E4FBFA0BBB00010AEB64014A70F50DBDB2
:0503D80000010C80DEB5
:0103DD0022FD
:030000000201BC3E
:0C01BC00787FE4F6D8FD7581070202038D
:0A0486004200000000420002FFFFE8
:0F045E00C2938FA0AF058F80C291D291D293220B
:05049100D29202045E9E
:08044B0090000DE0FEA3E0FFAC
:0B045300AD07AC06C292ECFF02045E95
:0A043600E0FF7E00120440A3E0FF87
:0B044000AD07AC06D292ECFF02045E98
:0E046D00AB05AA04120453AE02AF0302044012
:0B047B0090000BE0FEA3E0FF02045322
:08011300900011EEF0A3EFF0E3
:10011B00A312027700000000900005E024FFFB9083
:10012B000004E034FFFA900007E024FFFE90000685
:10013B00E034FF90001DF0A3CEF0E4FDFCFFFE12B7
:10014B0002F2D292C29390001312027700000000C9
:10015B00900006E0FCA3E0FD900004E0FEA3E0FFAE
:10016B00120248E4FCFD900013E0F8A3E0F9A3E0D1
:10017B00FAA3E0FBC312025A5034900011E0FCA327
:10018B00E0FDECF580C291D2918D80C291D291A30A
:10019B00E0FCA3E0FDA3E0FEA3E02401FFE43EFEB0
:1001AB00E43DFDE43CFC90001312026B80A2D29361
:0101BB002221
:1003DE00120366C293D290D292900000E0FCA3E08A
:1003EE00FDECF580C291D2918D80C291D291D293C3
:0103FE0022DC
:1003FF00AD07AC06C293D290D292ECF580C291D2E7
:0C040F0091AF058F80C291D291D2932250
:10041B00D2B37F327E00120392C2B37F327E0012C0
:0B042B000392D2B37F327E00020392E6
:1000030012041BD2907F117E001204537F1412033B
:10001300927FD07E001204537F071204407F421266
:1000230004407F181204407FD1120453E4FF1204EA
:10003300407F071204407F101204407FD212045302
:100043007F011204407F021204407FC01204537FD9
:10005300101204407F3B120440E4FF1204407F026D
:100063001204407F111204407FC51204537F031210
:1000730004407FC8120453E4FF1204407F32120489
:10008300407F361204407F451204407F061204402D
:100093007F161204407F371204407F751204407F9D
:1000A300771204407F541204407F0C120440E4FF93
:1000B3001204407F361204537F0A1204407F3A121F
:1000C30004537F551204407F2A120453E4FF1204A1
:1000D30040E4FF1204407F011204407F3F120440BA
:1000E3007F2B120453E4FF120440E4FF1204407F09
:1000F300011204407FE01204407F781203927F29AB
:100103007E001204537F2C12045312032CD2B2220A
:1002F200900017EEF0A3EFF0A3ECF0A3EDF01204E0
:100302004B900017120436EAFF120440AF037E003E
:1003120012044090000F12044E90001912043690FD
:0A032200001DE0FF12043A02047B04
:1003660090001FEEF0A3EFF0AB05AA0412044B9029
:10037600001F12043690000F12044EEAFF7E001290
:0C0386000440AF037E0012044002047B20
:10032C0090000BE4F0A3742CF090000A7401F09090
:10033C000004F0A374E0F0A37401F0A37440F090F7
:10034C00000DE4F0A3742AF0A3E4F0A3742BF07D69
:0A035C00287C007F367E0002046D4D
:1001C8000202A8E493A3F8E493A34003F68001F2A3
:1001D80008DFF48029E493A3F85407240CC8C33338
:1001E800C4540F4420C8834004F456800146F6DF07
:1001F800E4800B0102040810204080900486E47E0D
:10020800019360BCA3FF543F30E509541FFEE493FB
:10021800A360010ECF54C025E060A840B8E493A3C2
:10022800FAE493A3F8E493A3C8C582C8CAC583CAED
:10023800F0A3C8C582C8CAC583CADFE9DEE780BEA5
:01049000006B
:10024800EF8DF0A4A8F0CF8CF0A428CE8DF0A42ECA
:02025800FE2284
:10025A00EB9FF5F0EA9E42F0E99D42F0E89C45F0FA
:01026A002271
:0C026B00ECF0A3EDF0A3EEF0A3EFF02206
:10027700A8828583F0D083D08212028E12028E125A
:10028700028E12028EE473E493A3C583C5F0C5837F
:10029700C8C582C8F0A3C583C5F0C583C8C582C8D1
:0102A7002234
:00000001FF
